{
  "_format": "hh-sol-artifact-1",
  "contractName": "DFGlobalEscrow",
  "sourceName": "contracts/DFGlobalEscrow.sol",
  "abi": [
    {
      "anonymous": false,
      "inputs": [
        {
          "indexed": false,
          "internalType": "string",
          "name": "referenceId",
          "type": "string"
        },
        {
          "indexed": false,
          "internalType": "address",
          "name": "disputer",
          "type": "address"
        }
      ],
      "name": "Disputed",
      "type": "event"
    },
    {
      "anonymous": false,
      "inputs": [
        {
          "indexed": false,
          "internalType": "string",
          "name": "referenceId",
          "type": "string"
        },
        {
          "indexed": false,
          "internalType": "address",
          "name": "payer",
          "type": "address"
        },
        {
          "indexed": false,
          "internalType": "uint256",
          "name": "amount",
          "type": "uint256"
        },
        {
          "indexed": false,
          "internalType": "enum DFGlobalEscrow.TokenType",
          "name": "tokenType",
          "type": "uint8"
        },
        {
          "indexed": false,
          "internalType": "address",
          "name": "payee",
          "type": "address"
        },
        {
          "indexed": false,
          "internalType": "address",
          "name": "trustedParty",
          "type": "address"
        }
      ],
      "name": "EscrowInitiated",
      "type": "event"
    },
    {
      "anonymous": false,
      "inputs": [
        {
          "indexed": false,
          "internalType": "string",
          "name": "referenceId",
          "type": "string"
        },
        {
          "indexed": false,
          "internalType": "address",
          "name": "winner",
          "type": "address"
        }
      ],
      "name": "Finalized",
      "type": "event"
    },
    {
      "anonymous": false,
      "inputs": [
        {
          "indexed": true,
          "internalType": "string",
          "name": "referenceId",
          "type": "string"
        },
        {
          "indexed": true,
          "internalType": "address",
          "name": "owner",
          "type": "address"
        },
        {
          "indexed": false,
          "internalType": "uint256",
          "name": "amount",
          "type": "uint256"
        }
      ],
      "name": "Funded",
      "type": "event"
    },
    {
      "anonymous": false,
      "inputs": [
        {
          "indexed": true,
          "internalType": "address",
          "name": "previousOwner",
          "type": "address"
        },
        {
          "indexed": true,
          "internalType": "address",
          "name": "newOwner",
          "type": "address"
        }
      ],
      "name": "OwnershipTransferred",
      "type": "event"
    },
    {
      "anonymous": false,
      "inputs": [
        {
          "indexed": false,
          "internalType": "string",
          "name": "referenceId",
          "type": "string"
        },
        {
          "indexed": false,
          "internalType": "address",
          "name": "signer",
          "type": "address"
        },
        {
          "indexed": false,
          "internalType": "enum DFGlobalEscrow.Sign",
          "name": "action",
          "type": "uint8"
        }
      ],
      "name": "Signature",
      "type": "event"
    },
    {
      "anonymous": false,
      "inputs": [
        {
          "indexed": false,
          "internalType": "string",
          "name": "referenceId",
          "type": "string"
        },
        {
          "indexed": false,
          "internalType": "address",
          "name": "payee",
          "type": "address"
        },
        {
          "indexed": false,
          "internalType": "uint256",
          "name": "amount",
          "type": "uint256"
        }
      ],
      "name": "Withdrawn",
      "type": "event"
    },
    {
      "inputs": [
        {
          "internalType": "string",
          "name": "_referenceId",
          "type": "string"
        },
        {
          "internalType": "address payable",
          "name": "_owner",
          "type": "address"
        },
        {
          "internalType": "address payable",
          "name": "_recipient",
          "type": "address"
        },
        {
          "internalType": "address payable",
          "name": "_agent",
          "type": "address"
        },
        {
          "internalType": "enum DFGlobalEscrow.TokenType",
          "name": "tokenType",
          "type": "uint8"
        },
        {
          "internalType": "address",
          "name": "erc20TokenAddress",
          "type": "address"
        },
        {
          "internalType": "uint256",
          "name": "tokenAmount",
          "type": "uint256"
        }
      ],
      "name": "createEscrow",
      "outputs": [],
      "stateMutability": "payable",
      "type": "function"
    },
    {
      "inputs": [
        {
          "internalType": "string",
          "name": "_referenceId",
          "type": "string"
        },
        {
          "internalType": "address",
          "name": "_party",
          "type": "address"
        }
      ],
      "name": "dispute",
      "outputs": [],
      "stateMutability": "nonpayable",
      "type": "function"
    },
    {
      "inputs": [
        {
          "internalType": "string",
          "name": "_referenceId",
          "type": "string"
        }
      ],
      "name": "finalize",
      "outputs": [],
      "stateMutability": "nonpayable",
      "type": "function"
    },
    {
      "inputs": [
        {
          "internalType": "string",
          "name": "_referenceId",
          "type": "string"
        },
        {
          "internalType": "uint256",
          "name": "fundAmount",
          "type": "uint256"
        }
      ],
      "name": "fund",
      "outputs": [],
      "stateMutability": "payable",
      "type": "function"
    },
    {
      "inputs": [
        {
          "internalType": "string",
          "name": "_referenceId",
          "type": "string"
        },
        {
          "internalType": "address",
          "name": "_signer",
          "type": "address"
        }
      ],
      "name": "getSignedAction",
      "outputs": [
        {
          "internalType": "enum DFGlobalEscrow.Sign",
          "name": "",
          "type": "uint8"
        }
      ],
      "stateMutability": "view",
      "type": "function"
    },
    {
      "inputs": [
        {
          "internalType": "string",
          "name": "_referenceId",
          "type": "string"
        },
        {
          "internalType": "address",
          "name": "_signer",
          "type": "address"
        }
      ],
      "name": "isSigner",
      "outputs": [
        {
          "internalType": "bool",
          "name": "",
          "type": "bool"
        }
      ],
      "stateMutability": "view",
      "type": "function"
    },
    {
      "inputs": [],
      "name": "owner",
      "outputs": [
        {
          "internalType": "address",
          "name": "",
          "type": "address"
        }
      ],
      "stateMutability": "view",
      "type": "function"
    },
    {
      "inputs": [
        {
          "internalType": "string",
          "name": "_referenceId",
          "type": "string"
        },
        {
          "internalType": "address",
          "name": "_party",
          "type": "address"
        }
      ],
      "name": "release",
      "outputs": [],
      "stateMutability": "nonpayable",
      "type": "function"
    },
    {
      "inputs": [],
      "name": "renounceOwnership",
      "outputs": [],
      "stateMutability": "nonpayable",
      "type": "function"
    },
    {
      "inputs": [
        {
          "internalType": "string",
          "name": "_referenceId",
          "type": "string"
        },
        {
          "internalType": "address",
          "name": "_party",
          "type": "address"
        }
      ],
      "name": "reverse",
      "outputs": [],
      "stateMutability": "nonpayable",
      "type": "function"
    },
    {
      "inputs": [
        {
          "internalType": "address",
          "name": "newOwner",
          "type": "address"
        }
      ],
      "name": "transferOwnership",
      "outputs": [],
      "stateMutability": "nonpayable",
      "type": "function"
    },
    {
      "inputs": [
        {
          "internalType": "string",
          "name": "_referenceId",
          "type": "string"
        },
        {
          "internalType": "uint256",
          "name": "_amount",
          "type": "uint256"
        }
      ],
      "name": "withdraw",
      "outputs": [],
      "stateMutability": "nonpayable",
      "type": "function"
    }
  ],
  "bytecode": "0x608060405234801561001057600080fd5b5061001a3361001f565b61006f565b600080546001600160a01b038381166001600160a01b0319831681178455604051919092169283917f8be0079c531659141344cd1fd0a4f28419497f9722a3daafe3b4186f6b6457e09190a35050565b6124268061007e6000396000f3fe6080604052600436106100a75760003560e01c80638da5cb5b116100645780638da5cb5b1461016c5780639963ae8c14610194578063a54080b2146101a7578063cdcf0c4a146101c7578063cf40119c146101e7578063f2fde38b1461021757600080fd5b806312a0f6ee146100ac57806330b39a62146100c1578063470495b2146100e157806370b581ad14610101578063715018a6146101215780637908a1ba14610136575b600080fd5b6100bf6100ba366004611f2d565b610237565b005b3480156100cd57600080fd5b506100bf6100dc366004611fd4565b610654565b3480156100ed57600080fd5b506100bf6100fc366004611edd565b6109c3565b34801561010d57600080fd5b506100bf61011c366004611ea2565b610e3d565b34801561012d57600080fd5b506100bf610ef7565b34801561014257600080fd5b50610156610151366004611edd565b610f0b565b6040516101639190612111565b60405180910390f35b34801561017857600080fd5b506000546040516001600160a01b039091168152602001610163565b6100bf6101a2366004611fd4565b610f54565b3480156101b357600080fd5b506100bf6101c2366004611edd565b611399565b3480156101d357600080fd5b506100bf6101e2366004611edd565b611806565b3480156101f357600080fd5b50610207610202366004611edd565b611ad5565b6040519015158152602001610163565b34801561022357600080fd5b506100bf610232366004611e5f565b611b1e565b61023f611b97565b3361028d5760405162461bcd60e51b815260206004820152601960248201527814d95b99195c881cda1bdd5b19081b9bdd081899481b9d5b1b603a1b60448201526064015b60405180910390fd5b6001600160a01b0386166102e35760405162461bcd60e51b815260206004820152601c60248201527f526563697069656e742073686f756c64206e6f74206265206e756c6c000000006044820152606401610284565b6001600160a01b0385166103395760405162461bcd60e51b815260206004820152601c60248201527f526563697069656e742073686f756c64206e6f74206265206e756c6c000000006044820152606401610284565b6001600160a01b03841661038f5760405162461bcd60e51b815260206004820181905260248201527f54727573746564204167656e742073686f756c64206e6f74206265206e756c6c6044820152606401610284565b60006001600160a01b03166001886040516103aa91906120f5565b908152604051908190036020019020600201546001600160a01b0316146104065760405162461bcd60e51b815260206004820152601060248201526f4475706c696361746520457363726f7760801b6044820152606401610284565b600060018860405161041891906120f5565b9081526020016040518091039020905087816000019080519060200190610440929190611d3f565b506002810180546001600160a01b0319166001600160a01b038916908117909155331461047c576001810180546001600160a01b031916331790555b6003810180546001600160a01b038089166001600160a01b03199283161790925560048301805492881691831682178155869290916001600160a81b031990911617600160a01b8360018111156104e357634e487b7160e01b600052602160045260246000fd5b0217905550600b8101805460ff1916905560006004820154600160a01b900460ff16600181111561052457634e487b7160e01b600052602160045260246000fd5b141561057957600681018290556040517f6ddee67ec30404562a92341f00fefb1da06274ac7b7f3497bed7f69671eaac699061056c908a908a9086906000908c908c9061211f565b60405180910390a16105e1565b6005810180546001600160a01b0319166001600160a01b038516179055600681018290556040517f6ddee67ec30404562a92341f00fefb1da06274ac7b7f3497bed7f69671eaac69906105d8908a908a9086906001908c908c9061211f565b60405180910390a15b600b8101805462ffff0019169055600060098201819055600a82018190556001600160a01b03978816815260079091016020526040808220805460ff1990811660019081179092559789168352818320805489168217905595909716815295909520805490941690921790925550505050565b81336001600160a01b031660018260405161066f91906120f5565b908152604051908190036020019020600201546001600160a01b0316146106d85760405162461bcd60e51b815260206004820152601d60248201527f53656e646572206d75737420626520457363726f772773206f776e65720000006044820152606401610284565b826001816040516106e991906120f5565b908152604051908190036020019020600b015460ff1615156001146107505760405162461bcd60e51b815260206004820152601760248201527f457363726f772073686f756c642062652066756e6465640000000000000000006044820152606401610284565b600060018560405161076291906120f5565b908152604051908190036020019020600b81015490915060ff62010000909104166107e45760405162461bcd60e51b815260206004820152602c60248201527f457363726f772073686f756c642062652066696e616c697a6564206265666f7260448201526b19481dda5d1a191c985dd85b60a21b6064820152608401610284565b80600601548482600c01546107f991906122ff565b11156108555760405162461bcd60e51b815260206004820152602560248201527f43616e6e6f74207769746864726177206d6f7265207468616e207468652064656044820152641c1bdcda5d60da1b6064820152608401610284565b60028101546040516001600160a01b03909116907f9654f0a6acd7acb6401bdd91b9bccb0e6f9fe2d6f18a7e84b13e624c51ee39ac9061089a908890849089906121af565b60405180910390a18482600c01546108b291906122ff565b600c83015560006004830154600160a01b900460ff1660018111156108e757634e487b7160e01b600052602160045260246000fd5b14156109265760028201546040516001600160a01b039091169086156108fc029087906000818181858888f1935050505061092157600080fd5b6109bb565b600582015460405163a9059cbb60e01b81526001600160a01b0383811660048301526024820188905290911690819063a9059cbb90604401602060405180830381600087803b15801561097857600080fd5b505af115801561098c573d6000803e3d6000fd5b505050506040513d601f19601f820116820180604052508101906109b09190611e82565b6109b957600080fd5b505b505050505050565b818160006001836040516109d791906120f5565b908152604051908190036020019020600b81015490915060ff620100009091041615610a155760405162461bcd60e51b815260040161028490612235565b600b81015460ff16610a395760405162461bcd60e51b815260040161028490612207565b6001600160a01b038216600090815260078201602052604090205460ff16610aa35760405162461bcd60e51b815260206004820152601d60248201527f5061727479206973206e6f7420656c696769626c6520746f207369676e0000006044820152606401610284565b6001600160a01b038216600090815260088201602052604081205460ff166002811115610ae057634e487b7160e01b600052602160045260246000fd5b14610b285760405162461bcd60e51b815260206004820152601860248201527714185c9d1e481a185cc8185b1c9958591e481cda59db995960421b6044820152606401610284565b84336001600160a01b0316600182604051610b4391906120f5565b908152604051908190036020019020600201546001600160a01b03161480610b9e5750336001600160a01b0316600182604051610b8091906120f5565b908152604051908190036020019020600301546001600160a01b0316145b80610bdc5750336001600160a01b0316600182604051610bbe91906120f5565b908152604051908190036020019020600401546001600160a01b0316145b80610c1a5750336001600160a01b0316600182604051610bfc91906120f5565b908152604051908190036020019020600101546001600160a01b0316145b610c365760405162461bcd60e51b81526004016102849061226c565b6000600187604051610c4891906120f5565b90815260405190819003602001902060028101549091506001600160a01b0387811691161480610c87575060038101546001600160a01b038781169116145b80610ca1575060048101546001600160a01b038781169116145b610d0c5760405162461bcd60e51b815260206004820152603660248201527f4f6e6c79206f776e6572206f7220726563697069656e74206f72206167656e746044820152752063616e2072656c6561736520616e20657363726f7760501b6064820152608401610284565b60028101546001600160a01b0387811691161480610d39575060038101546001600160a01b038781169116145b15610d6657336001600160a01b03871614610d665760405162461bcd60e51b8152600401610284906122ca565b7fa9b055fb3e4f62a280d6da83c61a5343b360c637d39cc1064ba0154a482f9dc787876002604051610d9a9392919061217e565b60405180910390a16001600160a01b03861660009081526008820160205260408120805460ff1916600217905560098201805491610dd78361237e565b91905055505050806009015460021415610df957610df481611bf1565b610e36565b80600a015460021415610e0f57610df481611c1c565b80600901546001148015610e27575080600a01546001145b15610e3657610e368183611ca2565b5050505050565b80336001600160a01b0316600182604051610e5891906120f5565b908152604051908190036020019020600401546001600160a01b031614610ecd5760405162461bcd60e51b8152602060048201526024808201527f4f6e6c7920457363726f77204167656e742063616e20706572666f726d2061636044820152633a34b7b760e11b6064820152608401610284565b610ef3600183604051610ee091906120f5565b9081526020016040518091039020611c1c565b5050565b610eff611b97565b610f096000611cef565b565b6000600183604051610f1d91906120f5565b90815260408051602092819003830190206001600160a01b0385166000908152600890910190925290205460ff1690505b92915050565b81336001600160a01b0316600182604051610f6f91906120f5565b908152604051908190036020019020600201546001600160a01b03161480610fca5750336001600160a01b0316600182604051610fac91906120f5565b908152604051908190036020019020600101546001600160a01b0316145b6110295760405162461bcd60e51b815260206004820152602a60248201527f53656e646572206d75737420626520457363726f772773206f776e6572206f72604482015269103232b632b3b0ba37b960b11b6064820152608401610284565b60006001600160a01b031660018460405161104491906120f5565b908152604051908190036020019020600201546001600160a01b031614156110aa5760405162461bcd60e51b815260206004820152601960248201527814d95b99195c881cda1bdd5b19081b9bdd081899481b9d5b1b603a1b6044820152606401610284565b60006001846040516110bc91906120f5565b908152602001604051809103902060060154905060006001856040516110e291906120f5565b908152604051908190036020019020600b81015490915060ff16156111495760405162461bcd60e51b815260206004820152601860248201527f457363726f7720697320616c72656164792066756e64656400000000000000006044820152606401610284565b60006004820154600160a01b900460ff16600181111561117957634e487b7160e01b600052602160045260246000fd5b14156111e4578134146111df5760405162461bcd60e51b815260206004820152602860248201527f4d7573742066756e6420666f72206578616374204554482d616d6f756e7420696044820152676e20457363726f7760c01b6064820152608401610284565b611339565b34156112465760405162461bcd60e51b815260206004820152602b60248201527f63616e6e6f74206163636570742065746865727320666f72206572633230207460448201526a6f6b656e20657363726f7760a81b6064820152608401610284565b8184146112a85760405162461bcd60e51b815260206004820152602a60248201527f4d7573742066756e6420666f722065786163742045524332302d616d6f756e7460448201526920696e20457363726f7760b01b6064820152608401610284565b60058101546040516323b872dd60e01b8152336004820152306024820152604481018490526001600160a01b039091169081906323b872dd90606401602060405180830381600087803b1580156112fe57600080fd5b505af1158015611312573d6000803e3d6000fd5b505050506040513d601f19601f820116820180604052508101906113369190611e82565b50505b600b8101805460ff1916600117905560405133906113589087906120f5565b604051908190038120848252907f56f8b3797358d53a8af304edddd7e21bcd35e569cf8b749e528b9d44c9c921009060200160405180910390a35050505050565b81336001600160a01b03166001826040516113b491906120f5565b908152604051908190036020019020600201546001600160a01b0316148061140f5750336001600160a01b03166001826040516113f191906120f5565b908152604051908190036020019020600301546001600160a01b0316145b8061144d5750336001600160a01b031660018260405161142f91906120f5565b908152604051908190036020019020600401546001600160a01b0316145b8061148b5750336001600160a01b031660018260405161146d91906120f5565b908152604051908190036020019020600101546001600160a01b0316145b6114a75760405162461bcd60e51b81526004016102849061226c565b828260006001836040516114bb91906120f5565b908152604051908190036020019020600b81015490915060ff6201000090910416156114f95760405162461bcd60e51b815260040161028490612235565b600b81015460ff1661151d5760405162461bcd60e51b815260040161028490612207565b6001600160a01b038216600090815260078201602052604090205460ff166115875760405162461bcd60e51b815260206004820152601d60248201527f5061727479206973206e6f7420656c696769626c6520746f207369676e0000006044820152606401610284565b6001600160a01b038216600090815260088201602052604081205460ff1660028111156115c457634e487b7160e01b600052602160045260246000fd5b1461160c5760405162461bcd60e51b815260206004820152601860248201527714185c9d1e481a185cc8185b1c9958591e481cda59db995960421b6044820152606401610284565b600060018760405161161e91906120f5565b90815260405190819003602001902060028101549091506001600160a01b038781169116148061165d575060038101546001600160a01b038781169116145b80611677575060048101546001600160a01b038781169116145b6116e25760405162461bcd60e51b815260206004820152603660248201527f4f6e6c79206f776e6572206f7220726563697069656e74206f72206167656e746044820152752063616e207265766572736520616e20657363726f7760501b6064820152608401610284565b60028101546001600160a01b038781169116148061170f575060038101546001600160a01b038781169116145b1561173c57336001600160a01b0387161461173c5760405162461bcd60e51b8152600401610284906122ca565b7fa9b055fb3e4f62a280d6da83c61a5343b360c637d39cc1064ba0154a482f9dc7878760016040516117709392919061217e565b60405180910390a16001600160a01b03861660009081526008820160205260408120805460ff19166001179055600a82018054916117ad8361237e565b9190505550508060090154600214156117c95761092181611bf1565b80600a0154600214156117df5761092181611c1c565b806009015460011480156117f7575080600a01546001145b156109bb576109bb8183611ca2565b81336001600160a01b031660018260405161182191906120f5565b908152604051908190036020019020600201546001600160a01b0316148061187c5750336001600160a01b031660018260405161185e91906120f5565b908152604051908190036020019020600301546001600160a01b0316145b806118ba5750336001600160a01b031660018260405161189c91906120f5565b908152604051908190036020019020600101546001600160a01b0316145b61192c5760405162461bcd60e51b815260206004820152603760248201527f53656e646572206d75737420626520457363726f772773204f776e6572206f7260448201527f20526563697069656e74206f722064656c656761746f720000000000000000006064820152608401610284565b600060018460405161193e91906120f5565b908152604051908190036020019020600b81015490915060ff6201000090910416156119b85760405162461bcd60e51b8152602060048201526024808201527f43616e6e6f742064697370757465206f6e20612066696e616c6973656420457360448201526363726f7760e01b6064820152608401610284565b600b81015460ff166119dc5760405162461bcd60e51b815260040161028490612207565b60028101546001600160a01b0384811691161480611a09575060038101546001600160a01b038481169116145b611a6b5760405162461bcd60e51b815260206004820152602d60248201527f4f6e6c79206f776e6572206f7220726563697069656e742063616e206469737060448201526c757465206f6e20657363726f7760981b6064820152608401610284565b60028101546001600160a01b0384811691161480611a98575060038101546001600160a01b038481169116145b15611ac557336001600160a01b03841614611ac55760405162461bcd60e51b8152600401610284906122ca565b611acf8184611ca2565b50505050565b6000600183604051611ae791906120f5565b90815260408051602092819003830190206001600160a01b0394909416600090815260079094019091529091205460ff1692915050565b611b26611b97565b6001600160a01b038116611b8b5760405162461bcd60e51b815260206004820152602660248201527f4f776e61626c653a206e6577206f776e657220697320746865207a65726f206160448201526564647265737360d01b6064820152608401610284565b611b9481611cef565b50565b6000546001600160a01b03163314610f095760405162461bcd60e51b815260206004820181905260248201527f4f776e61626c653a2063616c6c6572206973206e6f7420746865206f776e65726044820152606401610284565b60038101546002820180546001600160a01b0319166001600160a01b03909216919091179055611b94815b600b81015462010000900460ff1615611c475760405162461bcd60e51b815260040161028490612235565b60028101546040517fa7b7710aad9e5885267220c23b4a860f69ca1264d4e9b12085408cad64b2d21891611c869184916001600160a01b0316906121dd565b60405180910390a1600b01805462ff0000191662010000179055565b6040517f61da453687760d4757ffd8259793edb6c4499438d1c67f5a451facc8de705b4490611cd490849084906121dd565b60405180910390a150600b01805461ff001916610100179055565b600080546001600160a01b038381166001600160a01b0319831681178455604051919092169283917f8be0079c531659141344cd1fd0a4f28419497f9722a3daafe3b4186f6b6457e09190a35050565b828054611d4b90612343565b90600052602060002090601f016020900481019282611d6d5760008555611db3565b82601f10611d8657805160ff1916838001178555611db3565b82800160010185558215611db3579182015b82811115611db3578251825591602001919060010190611d98565b50611dbf929150611dc3565b5090565b5b80821115611dbf5760008155600101611dc4565b600082601f830112611de8578081fd5b813567ffffffffffffffff80821115611e0357611e036123c5565b604051601f8301601f19908116603f01168101908282118183101715611e2b57611e2b6123c5565b81604052838152866020858801011115611e43578485fd5b8360208701602083013792830160200193909352509392505050565b600060208284031215611e70578081fd5b8135611e7b816123db565b9392505050565b600060208284031215611e93578081fd5b81518015158114611e7b578182fd5b600060208284031215611eb3578081fd5b813567ffffffffffffffff811115611ec9578182fd5b611ed584828501611dd8565b949350505050565b60008060408385031215611eef578081fd5b823567ffffffffffffffff811115611f05578182fd5b611f1185828601611dd8565b9250506020830135611f22816123db565b809150509250929050565b600080600080600080600060e0888a031215611f47578283fd5b873567ffffffffffffffff811115611f5d578384fd5b611f698a828b01611dd8565b9750506020880135611f7a816123db565b95506040880135611f8a816123db565b94506060880135611f9a816123db565b9350608088013560028110611fad578384fd5b925060a0880135611fbd816123db565b8092505060c0880135905092959891949750929550565b60008060408385031215611fe6578182fd5b823567ffffffffffffffff811115611ffc578283fd5b61200885828601611dd8565b95602094909401359450505050565b60038110612027576120276123af565b9052565b60008151808452612043816020860160208601612317565b601f01601f19169290920160200192915050565b8054600090600181811c908083168061207157607f831692505b602080841082141561209157634e487b7160e01b86526022600452602486fd5b838852602088018280156120ac57600181146120bd576120e8565b60ff198716825282820197506120e8565b60008981526020902060005b878110156120e2578154848201529086019084016120c9565b83019850505b5050505050505092915050565b60008251612107818460208701612317565b9190910192915050565b60208101610f4e8284612017565b60c08152600061213260c083018961202b565b6001600160a01b038881166020850152604084018890529091506002861061215c5761215c6123af565b856060840152808516608084015280841660a084015250979650505050505050565b606081526000612191606083018661202b565b6001600160a01b03851660208401529050611ed56040830184612017565b6060815260006121c2606083018661202b565b6001600160a01b039490941660208301525060400152919050565b6040815260006121f06040830185612057565b905060018060a01b03831660208301529392505050565b602080825260149082015273115cd8dc9bddc81a5cc81b9bdd08199d5b99195960621b604082015260600190565b6020808252601e908201527f457363726f772073686f756c64206e6f742062652066696e616c697a65640000604082015260600190565b602080825260409082018190527f53656e646572206d75737420626520457363726f772773204f776e6572206f72908201527f20526563697069656e74206f72206167656e74206f722064656c656761746f72606082015260800190565b6020808252818101527f5061727479206d7573742062652073616d65206173206d73672e73656e646572604082015260600190565b6000821982111561231257612312612399565b500190565b60005b8381101561233257818101518382015260200161231a565b83811115611acf5750506000910152565b600181811c9082168061235757607f821691505b6020821081141561237857634e487b7160e01b600052602260045260246000fd5b50919050565b600060001982141561239257612392612399565b5060010190565b634e487b7160e01b600052601160045260246000fd5b634e487b7160e01b600052602160045260246000fd5b634e487b7160e01b600052604160045260246000fd5b6001600160a01b0381168114611b9457600080fdfea2646970667358221220fd2455c246c2ade9de8e66350f8968eab8e51ad0b357cd535ccb01c1a133d5ee64736f6c63430008040033",
  "linkReferences": {},
  "deployedLinkReferences": {}
}